:020000020000FC
:0600000006C038C13BC13F
:10000C0047C10FE50DBF02E00EBFA5D0AFD0BFD0EA
:10001C00DED04030F1F3B0D0B7D00CD162E030E498
:10002C0071E081E0D0E0C0E6F4E0EEE328EC41D0F2
:10003C0028E83FD0A0EAB1E00EE80C93A1EAB1E0C9
:10004C0005E00C93A4EAB1E00EE80C93A5EAB1E04C
:10005C0005E00C93A8EAB1E004E90C93A9EAB1E03D
:10006C0007E00C93433011F4D6D0D2CF443009F4CE
:10007C00CFCF50B35030B1F35430A1F3583091F38B
:10008C00303121F4503271F3352FECCF303221F472
:10009C00503141F3352FE6CF303421F4503811F381
:1000AC00352FE0CF303821F45034E1F2352FDACF50
:1000BC00D9CF203029F0C895099231962A95F9CFDD
:1000CC000895D99801E008BB05BBD89AD898089533
:1000DC00DB9801E007B9DA9ADA980895D99800E824
:1000EC0008BB05BBD89AD8980895D99800EC08BBE2
:1000FC0005BBD89AD8980895D99804E908BB05BBD4
:10010C00D89AD8980895D99804ED08BB05BBD89A0D
:10011C00D8980895D99ADF2FCE2F088108BBA096C6
:10012C00A096088105BBD89AD8980895C895002048
:10013C0031F0DB9A07B8DA9ADA983196F7CF08954E
:10014C00A9E0BEE1C5EECA95F1F7BA95E1F7AA951B
:10015C00D1F70000089507E00ABB00E007BB00E000
:10016C0004BB00E001BB00E006B908950AE005BF3E
:10017C0000EC0BBF7894089502E00EBD00E808BFB8
:10018C0000E809BF7894089500EE0BBB0895D99848
:10019C00DB9808E308BB05BB07B9D89AD898DA9A5C
:1001AC00DA98D998DB980CE008BB05BB07B9D89A4C
:1001BC00D898DA9ADA98D998DB9806E008BB05BB90
:1001CC0007B9D89AD898DA9ADA987BDF089580DF45
:1001DC00DB9802EC07B9DA9ADA98E2EFF3E0A6DFE3
:1001EC00DB9808E907B9DA9ADA98EEEFF3E09EDFCC
:1001FC0008956EDFDB9802EC07B9DA9ADA98E6E03C
:10020C00F4E094DFDB9807E907B9DA9ADA98E2E1CF
:10021C00F4E08CDF089540E000E00EBD789458DFE8
:10022C00DB9804EC07B9DA9ADA98EAEEF3E07EDFB1
:10023C0087DF08954DDFDB9800E807B9DA9ADA9882
:10024C00ECE1F4E073DFDB9800EC07B9DA9ADA98AA
:10025C00E8E2F4E06BDFDB9804ED07B9DA9ADA98A0
:10026C00E4E3F4E063DF0895403009F441E01895CD
:10027C000F93403059F0413021F0DCDF41E002E0D7
:10028C0003C0B7DF42E000E00EBD78940F911895E3
:10029C000FB70F9306D051D066D077D00F910FBF08
:1002AC001895F1E0E0E0E60FDF2FCE2F2297319783
:1002BC00008139D028D0F1E0E0E00081303131F418
:1002CC007150703011F478E000580051303231F434
:1002DC007F5F793011F471E00058005F303431F4F5
:1002EC008F5F813111F481E000510F5F303831F4B0
:1002FC008150803011F480E1005F015019D0F1E0A1
:10030C00E0E00083089508810F3F39F0008106D0AA
:10031C0000810ED021973197F6CF089508810F3FB9
:10032C0009F000830895B0E0A02F10E11C9308950C
:10033C00B0E0A02F1FEF1C930895F0E0E0E620E161
:10034C00CDDE0AD020E1D1DE07D020E1D5DE04D00D
:10035C0020E1D9DE01D00895203021F0DBDE31968A
:10036C002A95FACF0895A8EAB1E0EC91A9EAB1E098
:10037C00FC913496A8EAB1E0EC93A9EAB1E0FC93C5
:10038C0004910F3F09F443E00895DB980DE807B999
:10039C00DA9ADA98A0EAB1E0EC91A1EAB1E0FC912A
:1003AC00C5DEDB980DEC07B9DA9ADA98A4EAB1E06D
:1003BC00EC91A5EAB1E0FC91B9DEDB9801EE07B94E
:1003CC00DA9ADA98A8EAB1E0EC91A9EAB1E0FC91EA
:1003DC00ADDE0895594F55204C4F534500005449FC
:1003EC004D452055500050524553532053544152C3
:1003FC005400544F20504C415900505245535320F7
:10040C00504155534500544F20524553554D4500CE
:10041C00424553542053434F52450000594F5552B7
:10042C002053434F5245000054494D45204C4546FE
:10043C00540010101010101010101010101010107C
:10044C0010101010101010101010101010101010A0
:10045C001010101010101010101010101010101090
:10046C001010101010101010101010101010101080
:10047C001010101010101010101010101010101070
:10048C001010101010101010101010101010101060
:10049C001010101010101010101010101010101050
:1004AC001010101010101010101010101010101040
:1004BC001010FFFFFFFFFFFFFFFFFFFFFFFFFFFF1E
:1004CC00FFFFFFFFFFFFFFFFFFFFFFFFFFFFFFFF30
:1004DC00FFFF606000000000000000000000000052
:1004EC000000000000000000000000000000000000
:1004FC0000000000000000000000000000000000F0
:10050C0000000000000000000000000000000000DF
:10051C0000000000000000000000000000000000CF
:10052C0000000000000000000000000000000000BF
:10053C0000000000000000000000000000000000AF
:10054C00000000000000000000000000000000009F
:10055C000000FFFFFFFFFFFFFFFFFFFFFFFFFFFF9D
:10056C00FFFFFFFFFFFFFFFFFFFFFFFFFFFFFFFF8F
:10057C00FFFF0000FFFF0000FFFF0000FFFF000077
:10058C00000030303000303031003030320030304C
:10059C0033003030340030303500303036003030FD
:1005AC0037003030380030303900303130003031E5
:1005BC0031003031320030313300303134003031E1
:1005CC0035003031360030313700303138003031C1
:1005DC0039003032300030323100303232003032BB
:1005EC0033003032340030323500303236003032A5
:1005FC00370030323800303239003033300030338D
:10060C003100303332003033330030333400303388
:10061C003500303336003033370030333800303368
:10062C003900303430003034310030343200303462
:10063C00330030343400303435003034360030344C
:10064C003700303438003034390030353000303534
:10065C003100303532003035330030353400303530
:10066C003500303536003035370030353800303510
:10067C00390030363000303631003036320030360A
:10068C0033003036340030363500303636003036F4
:10069C0037003036380030363900303730003037DC
:1006AC0031003037320030373300303734003037D8
:1006BC0035003037360030373700303738003037B8
:1006CC0039003038300030383100303832003038B2
:1006DC00330030383400303835003038360030389C
:1006EC003700303838003038390030393000303984
:1006FC003100303932003039330030393400303980
:10070C00350030393600303937003039380030395F
:10071C00390031303000313031003130320031307D
:10072C003300313034003130350031303600313067
:10073C00370031303800313039003131300031314F
:10074C00310031313200313133003131340031314B
:10075C00350031313600313137003131380031312B
:10076C003900313230003132310031323200313225
:10077C00330031323400313235003132360031320F
:10078C00370031323800FF00313238003132370057
:10079C0031323600313235003132340031323300EF
:0E07AC00313232003132310031323000FF0084
:00000001FF
