:020000020000FC
:0600000006C089C18CC19D
:10000C0098C10FE50DBF02E00EBFBCD0C6D0D6D054
:10001C00F5D04030F1F3C7D0CED05DD162E030E402
:10002C0071E081E0D0E0C0E6F5E0EEE328EC56D0DC
:10003C0024E854D0EDEAF1E000810F3F69F0A0EA2A
:10004C00B1E0CCEAD1E008810C93A1EAB1E0CDEAB1
:10005C00D1E008810C9308C0A0EAB1E00AE80C9347
:10006C00A1EAB1E006E00C93A4EAB1E00AE80C9333
:10007C00A5EAB1E006E00C93A8EAB1E000E90C9324
:10008C00A9EAB1E008E00C93433019F4DBD0F8D0C6
:10009C00BFCF443019F4E5D0F3D0BACF50B35030C1
:1000AC0099F3543089F3583079F3303121F45032CC
:1000BC0059F3352FE9CF303221F4503129F3352F54
:1000CC00E3CF303421F45038F9F2352FDDCF30380E
:1000DC0021F45034C9F2352FD7CFD6CF203029F0A8
:1000EC00C895099231962A95F9CF0895D99801E0CF
:1000FC0008BB05BBD89AD8980895DB9801E007B9DE
:10010C00DA9ADA980895D99800E808BB05BBD89A12
:10011C00D8980895D99800EC08BB05BBD89AD89804
:10012C000895D99804E908BB05BBD89AD8980895C6
:10013C00D99804ED08BB05BBD89AD8980895D99ADC
:10014C00DF2FCE2F088108BBA096A096088105BB97
:10015C00D89AD898D9980895C895002039F0DB9A88
:10016C0007B8DA9ADA98DB983196F6CF0895A9E0B9
:10017C00BEE1C5EECA95F1F7BA95E1F7AA95D1F7AC
:10018C000000089507E00ABB00E007BB00E004BBD9
:10019C0000E001BB00E006B908950AE005BF00ECE1
:1001AC000BBF7894089502E00EBD00E808BF00E88C
:1001BC0009BF7894089500EE0BBB0895D998DB988D
:1001CC0008E308BB05BB07B9D89AD898DA9ADA982D
:1001DC00D998DB980CE008BB05BB07B9D89AD8981E
:1001EC00DA9ADA98D998DB9806E008BB05BB07B910
:1001FC00D89AD898DA9ADA9879DF08957EDFDB9866
:10020C0002EC07B9DA9ADA98E2EFF4E0A5DFDB98B2
:10021C0008E907B9DA9ADA98EEEFF4E09DDF089571
:10022C006CDFDB9802EC07B9DA9ADA98E6E0F5E0D5
:10023C0093DFDB9807E907B9DA9ADA98E2E1F5E09F
:10024C008BDF089540E000E00EBD789456DFDB981C
:10025C0004EC07B9DA9ADA98EAEEF4E07DDF87DF8E
:10026C00089540E000E00EBD789447DFDB9804EC85
:10027C0007B9DA9ADA98E0EEF4E06EDF78DF0895E9
:10028C00E1EAF1E00081C5EAD1E018811017A9F488
:10029C00E0EAF1E00081C4EAD1E018811017D4F053
:1002AC00E5EAF1E00081EDEAF1E00083E4EAF1E057
:1002BC000081ECEAF1E000830DC064F0E5EAF1E0C6
:1002CC000081EDEAF1E00083E4EAF1E00081ECEA80
:1002DC00F1E00083089511DFDB9800E807B9DA9AA2
:1002EC00DA98ECE1F5E038DFDB9800EC07B9DA9A44
:1002FC00DA98E8E2F5E030DFDB9804ED07B9DA9A3A
:10030C00DA98E4E3F5E028DF0895403009F441E0A1
:10031C0018950F93403059F0413021F0DCDF41E06B
:10032C0002E003C07DDF42E000E00EBD78940F9147
:10033C0018950FB70F9306D068D07DD0A6D00F912B
:10034C000FBF1895F1E0E0E0E60FDF2FCE2F2297DC
:10035C00319700810F934FD03ED0F1E0E0E0008167
:10036C00303131F47150703011F478E00058005194
:10037C00303231F47F5F793011F471E00058005F56
:10038C00303431F48F5F813111F481E000510F5F13
:10039C00303831F48150803011F480E1005F01502D
:1003AC000ED02ED0F1E0E0E000830F91923031F4CA
:1003BC00F1E0E0E0E60F6F5F008322D008950F9329
:1003CC00E02FF0E000810F3F09F491E00A3209F4CC
:1003DC0092E00F91089508810F3F39F0008106D00B
:1003EC0000810ED021973197F6CF089508810F3FE9
:1003FC0009F000830895B0E0A02F10E11C9308953C
:10040C00B0E0A02F1FEF1C930895F0E0E0E620E190
:10041C007ADE0AD020E17EDE07D020E182DE04D035
:10042C0020E186DE01D00895203021F088DE31965F
:10043C002A95FACF0895A8EAB1E0EC91A9EAB1E0C7
:10044C00FC913496A8EAB1E0EC93A9EAB1E0FC93F4
:10045C0004910F3F09F443E0913019F40BB3000FF2
:10046C000BBB003009F444E0923069F4A4EAB1E02B
:10047C00EC91A5EAB1E0FC913496A4EAB1E0EC93DE
:10048C00A5EAB1E0FC9390E00895DB980DE807B97C
:10049C00DA9ADA98A0EAB1E0EC91A1EAB1E0FC9129
:1004AC005BDEDB980DEC07B9DA9ADA98A4EAB1E0D6
:1004BC00EC91A5EAB1E0FC914FDEDB9801EE07B9B7
:1004CC00DA9ADA98A8EAB1E0EC91A9EAB1E0FC91E9
:1004DC0043DE0895594F55204C4F53450000544965
:1004EC004D452055500050524553532053544152C2
:1004FC005400544F20504C415900505245535320F6
:10050C00504155534500544F20524553554D4500CD
:10051C00424553542053434F52450000594F5552B6
:10052C002053434F5245000054494D45204C4546FD
:10053C0054001010101010102A2A2A2A1010101013
:10054C0010101010101010101010102A1010101085
:10055C00101010101010101010101010101010108F
:10056C00101010101010101010101010101010107F
:10057C00101010101010101010101010101010106F
:10058C00101010101010101010101010101010105F
:10059C00101010101010101010101010101010104F
:1005AC00101010101010101010101010101010103F
:1005BC001010FFFFFFFFFFFFFFFFFFFFFFFFFFFF1D
:1005CC00FFFFFFFFFFFFFFFFFFFFFFFFFFFFFFFF2F
:1005DC00FFFF606000000000000000000000000051
:1005EC0000000000000000000000000000000000FF
:1005FC0000000000000000000000000000000000EF
:10060C0000000000000000000000000000000000DE
:10061C0000000000000000000000000000000000CE
:10062C0000000000000000000000000000000000BE
:10063C0000000000000000000000000000000000AE
:10064C00000000000000000000000000000000009E
:10065C000000FFFFFFFFFFFFFFFFFFFFFFFFFFFF9C
:10066C00FFFFFFFFFFFFFFFFFFFFFFFFFFFFFFFF8E
:10067C00FFFF0000FFFF0000FFFF0000FFFF303016
:10068C003000303031003030320030303300303018
:10069C0034003030350030303600303037003030F8
:1006AC0038003030390030313000303131003031E9
:1006BC0032003031330030313400303135003031DC
:1006CC0036003031370030313800303139003032BB
:1006DC0030003032310030323200303233003032C0
:1006EC0034003032350030323600303237003032A0
:1006FC003800303239003033300030333100303391
:10070C003200303333003033340030333500303383
:10071C003600303337003033380030333900303462
:10072C003000303431003034320030343300303467
:10073C003400303435003034360030343700303447
:10074C003800303439003035300030353100303538
:10075C00320030353300303534003035350030352B
:10076C00360030353700303538003035390030360A
:10077C00300030363100303632003036330030360F
:10078C0034003036350030363600303637003036EF
:10079C0038003036390030373000303731003037E0
:1007AC0032003037330030373400303735003037D3
:1007BC0036003037370030373800303739003038B2
:1007CC0030003038310030383200303833003038B7
:1007DC003400303835003038360030383700303897
:1007EC003800303839003039300030393100303988
:1007FC00320030393300303934003039350030397B
:10080C003600303937003039380030393900313062
:10081C003000313031003130320031303300313082
:10082C003400313035003130360031303700313062
:10083C003800313039003131300031313100313153
:10084C003200313133003131340031313500313146
:10085C003600313137003131380031313900313225
:10086C00300031323100313232003132330031322A
:10087C00340031323500313236003132370031320A
:10088C003800FF0031323800313237003132360057
:10089C0031323500313234003132330031323200F2
:1008AC0031323100313230003131390031313800E0
:1008BC0031313700313136003131350031313400CE
:1008CC0031313300313132003131310031313000CE
:1008DC0031303900313038003130370031303600AA
:1008EC0031303500313034003130330031303200AA
:1008FC003130310031303000303939003039380086
:10090C003039370030393600303935003039340061
:10091C003039330030393200303931003039300061
:10092C00303839003038380030383700303836003D
:10093C00303835003038340030383300303832003D
:10094C00303831003038300030373900303738002B
:10095C003037370030373600303735003037340019
:10096C003037330030373200303731003037300019
:10097C0030363900303638003036370030363600F5
:10098C0030363500303634003036330030363200F5
:10099C0030363100303630003035390030353800E3
:1009AC0030353700303536003035350030353400D1
:1009BC0030353300303532003035310030353000D1
:1009CC0030343900303438003034370030343600AD
:1009DC0030343500303434003034330030343200AD
:1009EC00303431003034300030333900303338009B
:1009FC003033370030333600303335003033340089
:100A0C003033330030333200303331003033300088
:100A1C003032390030323800303237003032360064
:100A2C003032350030323400303233003032320064
:100A3C003032310030323000303139003031380052
:100A4C003031370030313600303135003031340040
:100A5C003031330030313200303131003031300040
:100A6C00303039003030380030303700303036001C
:100A7C00303035003030340030303300303032001C
:0A0A8C003030310030303000FF0040
:00000001FF
