:020000020000FC
:0600000006C0A1C0A1C072
:10000C009EC00FE50DBF02E00EBF07E00ABB00E08B
:10001C0007BB00E004BB00E001BB00E006B90AE04E
:10002C0005BF00EC0BBF789402E00EBD00E808BFE2
:10003C0000E809BF789400EE0BBBD99808E308BB25
:10004C0005BB07B9D89AD898D9980CE008BB05BB62
:10005C0007B9D89AD898D99806E008BB05BB07B958
:10006C00D89AD89832D062E030E4D0E0C0E6F2E022
:10007C00EEE128EC22D028EC20D050B35030E9F33C
:10008C005430D9F35830C9F3303121F45032A9F33C
:10009C00352FF3CF303221F4503179F3352FEDCFAA
:1000AC00303421F4503849F3352FE7CF303821F470
:1000BC00503419F3352FE1CFE0CF203029F0C8951B
:1000CC00099231962A95F9CF0895D99801E008BB89
:1000DC0005BB07B9D89AD8980895D99800E808BBF9
:1000EC0005BB07B9D89AD8980895D99800EC08BBE5
:1000FC0005BB07B9D89AD8980895D99804E908BBD4
:10010C0005BB07B9D89AD8980895D99804ED08BBBF
:10011C0005BB07B9D89AD8980895D99ADF2FCE2F56
:10012C00088108BBA096A096088105BBA096A09656
:10013C00088107B9D89AD8980895189518950BB3D3
:10014C0010EE01270BBB02D03DD01895F1E0E0E397
:10015C00E60FDF2FCE2F229731970081402F28D02A
:10016C0015D0F1E0E0E30081303109F40051303278
:10017C0009F4005F303409F40F5F303809F4015092
:10018C00402F1BD0F1E0E0E30083089508810F3F7E
:10019C0049F00081402F07D00081402F0ED02197CD
:1001AC003197F4CF089508810F3F09F0008308952B
:1001BC00B0E0A42F10E11C930895B0E0A42F1FEF22
:1001CC001C930895F0E0E0E620E187DF0AD020E1FF
:1001DC008CDF07D020E191DF04D020E196DF01D045
:1001EC000895203021F099DF31962A95FACF0895A1
:1001FC00594F55204C4F5345000054494D452055FF
:10020C005000000050524553532053544152540057
:10021C0000001010101010101010101010101010F2
:10022C0010101010101010101010101010101010C2
:10023C0010101010101010101010101010101010B2
:10024C0010101010101010101010101010101010A2
:10025C001010101010101010101010101010101092
:10026C001010101010101010101010101010101082
:10027C001010101010101010101010101010101072
:10028C001010101010101010101010101010101062
:10029C001010101010101010101010101010101052
:1002AC001010101010101010101010101010101042
:1002BC001010101010101010101010101010101032
:1002CC001010101010101010101010101010101022
:1002DC001010FFFFFFFFFFFFFFFFFFFFFFFFFFFF00
:1002EC00FFFF717000000000000000000000000023
:1002FC0000000000000000000000000000000000F2
:10030C0000000000000000000000000000000000E1
:10031C0000000000000000000000000000000000D1
:10032C0000000000000000000000000000000000C1
:10033C0000000000000000000000000000000000B1
:10034C0000000000000000000000000000000000A1
:10035C000000000000000000000000000000000091
:10036C000000000000000000000000000000000081
:10037C000000000000000000000000000000000071
:10038C000000000000000000000000000000000061
:10039C000000000000000000000000000000000051
:0203AC0000004F
:00000001FF
